:060000000A128A110C280F
:10000800FE00030EF1000A08F2000A128A117B288A
:100018000A128A110F2883132930FD000030FE00D0
:100028008E30FF00203084000A128A116C200A12D8
:100038008A11F501F601F701F80183010A128A1104
:10004800522801308316031788008901013083166E
:1000580003138500880183120313850188018B1718
:100068000B17831603138C160F088F3940388F002F
:100078000F141812181583160317871519308316CD
:10008800031399009A018312031398178316031315
:100098001813981683120313181608000A128A11E7
:1000A80025200A128A112130F4007630F300F30B70
:1000B8005B28F40B5B28000061308312031399005E
:1000C80057280A128A110C287E088A007F088200A5
:1000D8000A128A1168200A128A118000840A040808
:1000E8007D0603190034FF0A0319FE0A6C288312DF
:1000F80003138C1E8028812887281A08F0007008AE
:10010800A6002608880072088A00710E8300FE0E79
:100118007E0E09004434613474346F343A34203428
:0601280020340D340A34FE
:08400000FF3FFF3FFF3FFF3FC0
:04400E00D420FF3F7C
:00000001FF
